{
  "contractName": "ExampleReceiver",
  "abi": [
    {
      "constant": false,
      "inputs": [
        {
          "name": "_sender",
          "type": "address"
        },
        {
          "name": "_origin",
          "type": "address"
        },
        {
          "name": "_value",
          "type": "uint256"
        },
        {
          "name": "_data",
          "type": "bytes"
        }
      ],
      "name": "tokenFallback",
      "outputs": [
        {
          "name": "ok",
          "type": "bool"
        }
      ],
      "payable": false,
      "stateMutability": "nonpayable",
      "type": "function"
    },
    {
      "payable": false,
      "stateMutability": "nonpayable",
      "type": "fallback"
    },
    {
      "anonymous": false,
      "inputs": [
        {
          "indexed": false,
          "name": "i",
          "type": "uint256"
        },
        {
          "indexed": false,
          "name": "token",
          "type": "address"
        },
        {
          "indexed": false,
          "name": "sender",
          "type": "address"
        },
        {
          "indexed": false,
          "name": "value",
          "type": "uint256"
        }
      ],
      "name": "LogTokenPayable",
      "type": "event"
    },
    {
      "constant": false,
      "inputs": [],
      "name": "foo",
      "outputs": [],
      "payable": false,
      "stateMutability": "nonpayable",
      "type": "function"
    },
    {
      "constant": false,
      "inputs": [
        {
          "name": "token",
          "type": "address"
        }
      ],
      "name": "supportsToken",
      "outputs": [
        {
          "name": "",
          "type": "bool"
        }
      ],
      "payable": false,
      "stateMutability": "nonpayable",
      "type": "function"
    }
  ],
  "bytecode": "0x6060604052341561000f57600080fd5b61085a8061001e6000396000f300606060405260043610610057576000357c0100000000000000000000000000000000000000000000000000000000900463ffffffff168063061f7650146101755780634c123019146101c6578063c298557814610282575b341561006257600080fd5b600660009054906101000a900460ff16151561007d57600080fd5b7ff2437bb3d950b968625757c8878714de92924bf3f774677a83c75a8cb34abd7d60008060000160009054906101000a900473ffffffffffffffffffffffffffffffffffffffff16600060010160009054906101000a900473ffffffffffffffffffffffffffffffffffffffff16600060030154604051808581526020018473ffffffffffffffffffffffffffffffffffffffff1673ffffffffffffffffffffffffffffffffffffffff1681526020018373ffffffffffffffffffffffffffffffffffffffff1673ffffffffffffffffffffffffffffffffffffffff16815260200182815260200194505050505060405180910390a1005b341561018057600080fd5b6101ac600480803573ffffffffffffffffffffffffffffffffffffffff16906020019091905050610297565b604051808215151515815260200191505060405180910390f35b34156101d157600080fd5b610268600480803573ffffffffffffffffffffffffffffffffffffffff1690602001909190803573ffffffffffffffffffffffffffffffffffffffff1690602001909190803590602001909190803590602001908201803590602001908080601f016020809104026020016040519081016040528093929190818152602001838380828437820191505050505050919050506102a2565b604051808215151515815260200191505060405180910390f35b341561028d57600080fd5b61029561056f565b005b600060019050919050565b60006102ad33610297565b15156102bc5760009050610567565b60c0604051908101604052803373ffffffffffffffffffffffffffffffffffffffff1681526020018673ffffffffffffffffffffffffffffffffffffffff1681526020018573ffffffffffffffffffffffffffffffffffffffff16815260200184815260200183815260200161033184610682565b7bffffffffffffffffffffffffffffffffffffffffffffffffffffffff19168152506000808201518160000160006101000a81548173ffffffffffffffffffffffffffffffffffffffff021916908373ffffffffffffffffffffffffffffffffffffffff16021790555060208201518160010160006101000a81548173ffffffffffffffffffffffffffffffffffffffff021916908373ffffffffffffffffffffffffffffffffffffffff16021790555060408201518160020160006101000a81548173ffffffffffffffffffffffffffffffffffffffff021916908373ffffffffffffffffffffffffffffffffffffffff16021790555060608201518160030155608082015181600401908051906020019061044f929190610789565b5060a08201518160050160006101000a81548163ffffffff02191690837c0100000000000000000000000000000000000000000000000000000000900402179055509050506001600660006101000a81548160ff0219169083151502179055503073ffffffffffffffffffffffffffffffffffffffff168260405180828051906020019080838360005b838110156104f45780820151818401526020810190506104d9565b50505050905090810190601f1680156105215780820380516001836020036101000a031916815260200191505b509150506000604051808303818561646e5a03f491505015156105475760009050610567565b6000600660006101000a81548160ff021916908315150217905550600190505b949350505050565b600660009054906101000a900460ff16151561058a57600080fd5b7ff2437bb3d950b968625757c8878714de92924bf3f774677a83c75a8cb34abd7d60016000800160009054906101000a900473ffffffffffffffffffffffffffffffffffffffff16600060010160009054906101000a900473ffffffffffffffffffffffffffffffffffffffff16600060030154604051808581526020018473ffffffffffffffffffffffffffffffffffffffff1673ffffffffffffffffffffffffffffffffffffffff1681526020018373ffffffffffffffffffffffffffffffffffffffff1673ffffffffffffffffffffffffffffffffffffffff16815260200182815260200194505050505060405180910390a1565b6000806000600484511061069757600461069a565b83515b9150600090505b818110156107825780600183030360080260020a84828151811015156106c357fe5b9060200101517f010000000000000000000000000000000000000000000000000000000000000090047f0100000000000000000000000000000000000000000000000000000000000000027f0100000000000000000000000000000000000000000000000000000000000000900402837c01000000000000000000000000000000000000000000000000000000009004017c010000000000000000000000000000000000000000000000000000000002925080806001019150506106a1565b5050919050565b828054600181600116156101000203166002900490600052602060002090601f016020900481019282601f106107ca57805160ff19168380011785556107f8565b828001600101855582156107f8579182015b828111156107f75782518255916020019190600101906107dc565b5b5090506108059190610809565b5090565b61082b91905b8082111561082757600081600090555060010161080f565b5090565b905600a165627a7a723058207f4e4f5f1b7e4e86d2045465ee21396fbcc2b6247ad0cd9c91d140058d93a6d20029",
  "source": "pragma solidity ^0.4.8;\n\nimport \"../implementation/Standard223Receiver.sol\";\n\ncontract ExampleReceiver is Standard223Receiver {\n  function foo(/*uint i*/) tokenPayable {\n    LogTokenPayable(1, tkn.addr, tkn.sender, tkn.value);\n  }\n\n  function () tokenPayable {\n    LogTokenPayable(0, tkn.addr, tkn.sender, tkn.value);\n  }\n\n  function supportsToken(address token) returns (bool) {\n    return true;\n  }\n\n  event LogTokenPayable(uint i, address token, address sender, uint value);\n}\n",
  "sourcePath": "/data/company/openapp/blockchain/src/workether/contracts/example/ExampleReceiver.sol",
  "compiler": {
    "name": "solc",
    "version": "0.4.19+commit.c4cbbb05.Emscripten.clang"
  },
  "schemaVersion": "2.0.0",
  "updatedAt": "2018-03-31T10:15:57.841Z"
}