{
  "contractName": "TokenEscrow",
  "abi": [
    {
      "constant": true,
      "inputs": [
        {
          "name": "",
          "type": "address"
        }
      ],
      "name": "escrows",
      "outputs": [
        {
          "name": "token",
          "type": "address"
        },
        {
          "name": "tokenAmount",
          "type": "uint256"
        },
        {
          "name": "tokenReceived",
          "type": "bool"
        },
        {
          "name": "price",
          "type": "uint256"
        },
        {
          "name": "seller",
          "type": "address"
        },
        {
          "name": "recipient",
          "type": "address"
        }
      ],
      "payable": false,
      "stateMutability": "view",
      "type": "function"
    },
    {
      "inputs": [],
      "payable": false,
      "stateMutability": "nonpayable",
      "type": "constructor"
    },
    {
      "payable": true,
      "stateMutability": "payable",
      "type": "fallback"
    },
    {
      "constant": false,
      "inputs": [
        {
          "name": "_owner",
          "type": "address"
        }
      ],
      "name": "setOwner",
      "outputs": [],
      "payable": false,
      "stateMutability": "nonpayable",
      "type": "function"
    },
    {
      "constant": false,
      "inputs": [
        {
          "name": "token",
          "type": "address"
        },
        {
          "name": "tokenAmount",
          "type": "uint256"
        },
        {
          "name": "price",
          "type": "uint256"
        },
        {
          "name": "seller",
          "type": "address"
        },
        {
          "name": "buyer",
          "type": "address"
        }
      ],
      "name": "create",
      "outputs": [],
      "payable": false,
      "stateMutability": "nonpayable",
      "type": "function"
    },
    {
      "constant": false,
      "inputs": [
        {
          "name": "token",
          "type": "address"
        },
        {
          "name": "tokenAmount",
          "type": "uint256"
        },
        {
          "name": "price",
          "type": "uint256"
        },
        {
          "name": "seller",
          "type": "address"
        },
        {
          "name": "buyer",
          "type": "address"
        },
        {
          "name": "recipient",
          "type": "address"
        }
      ],
      "name": "create",
      "outputs": [],
      "payable": false,
      "stateMutability": "nonpayable",
      "type": "function"
    },
    {
      "constant": false,
      "inputs": [],
      "name": "kill",
      "outputs": [],
      "payable": false,
      "stateMutability": "nonpayable",
      "type": "function"
    },
    {
      "constant": false,
      "inputs": [],
      "name": "getOwner",
      "outputs": [
        {
          "name": "",
          "type": "address"
        }
      ],
      "payable": false,
      "stateMutability": "nonpayable",
      "type": "function"
    },
    {
      "constant": false,
      "inputs": [
        {
          "name": "amount",
          "type": "uint256"
        }
      ],
      "name": "receive",
      "outputs": [],
      "payable": true,
      "stateMutability": "payable",
      "type": "function"
    }
  ],
  "bytecode": "0x606060405260018055341561001357600080fd5b336000806101000a81548173ffffffffffffffffffffffffffffffffffffffff021916908373ffffffffffffffffffffffffffffffffffffffff160217905550610fc9806100626000396000f300606060405260043610610083576000357c0100000000000000000000000000000000000000000000000000000000900463ffffffff16806313af4035146104d357806324ce29171461050c57806331a2aba81461059557806341c0e1b51461063d578063477230b214610652578063893d20e81461074a578063cba2534f1461079f575b6000806000600260003373ffffffffffffffffffffffffffffffffffffffff1673ffffffffffffffffffffffffffffffffffffffff168152602001908152602001600020925060008360000160009054906101000a900473ffffffffffffffffffffffffffffffffffffffff1673ffffffffffffffffffffffffffffffffffffffff16141561011157600080fd5b8260000160009054906101000a900473ffffffffffffffffffffffffffffffffffffffff1691508260020160009054906101000a900460ff16151561023c578173ffffffffffffffffffffffffffffffffffffffff166370a08231306000604051602001526040518263ffffffff167c0100000000000000000000000000000000000000000000000000000000028152600401808273ffffffffffffffffffffffffffffffffffffffff1673ffffffffffffffffffffffffffffffffffffffff168152602001915050602060405180830381600087803b15156101f357600080fd5b6102c65a03f1151561020457600080fd5b50505060405180519050905082600101548110151561023b5760018360020160006101000a81548160ff0219169083151502179055505b5b8260020160009054906101000a900460ff16151561025957600080fd5b826003015434101561026a57600080fd5b8173ffffffffffffffffffffffffffffffffffffffff1663a9059cbb8460050160009054906101000a900473ffffffffffffffffffffffffffffffffffffffff1685600101546000604051602001526040518363ffffffff167c0100000000000000000000000000000000000000000000000000000000028152600401808373ffffffffffffffffffffffffffffffffffffffff1673ffffffffffffffffffffffffffffffffffffffff16815260200182815260200192505050602060405180830381600087803b151561033d57600080fd5b6102c65a03f1151561034e57600080fd5b50505060405180519050508260040160009054906101000a900473ffffffffffffffffffffffffffffffffffffffff1673ffffffffffffffffffffffffffffffffffffffff166108fc84600301549081150290604051600060405180830381858888f19350505050503373ffffffffffffffffffffffffffffffffffffffff166108fc348560030154039081150290604051600060405180830381858888f1935050505050600260003373ffffffffffffffffffffffffffffffffffffffff1673ffffffffffffffffffffffffffffffffffffffff168152602001908152602001600020600080820160006101000a81549073ffffffffffffffffffffffffffffffffffffffff021916905560018201600090556002820160006101000a81549060ff021916905560038201600090556004820160006101000a81549073ffffffffffffffffffffffffffffffffffffffff02191690556005820160006101000a81549073ffffffffffffffffffffffffffffffffffffffff02191690555050505050005b34156104de57600080fd5b61050a600480803573ffffffffffffffffffffffffffffffffffffffff169060200190919050506107b7565b005b341561051757600080fd5b610593600480803573ffffffffffffffffffffffffffffffffffffffff1690602001909190803590602001909190803590602001909190803573ffffffffffffffffffffffffffffffffffffffff1690602001909190803573ffffffffffffffffffffffffffffffffffffffff16906020019091905050610850565b005b34156105a057600080fd5b61063b600480803573ffffffffffffffffffffffffffffffffffffffff1690602001909190803590602001909190803590602001909190803573ffffffffffffffffffffffffffffffffffffffff1690602001909190803573ffffffffffffffffffffffffffffffffffffffff1690602001909190803573ffffffffffffffffffffffffffffffffffffffff16906020019091905050610865565b005b341561064857600080fd5b610650610a2b565b005b341561065d57600080fd5b610689600480803573ffffffffffffffffffffffffffffffffffffffff16906020019091905050610a9b565b604051808773ffffffffffffffffffffffffffffffffffffffff1673ffffffffffffffffffffffffffffffffffffffff168152602001868152602001851515151581526020018481526020018373ffffffffffffffffffffffffffffffffffffffff1673ffffffffffffffffffffffffffffffffffffffff1681526020018273ffffffffffffffffffffffffffffffffffffffff1673ffffffffffffffffffffffffffffffffffffffff168152602001965050505050505060405180910390f35b341561075557600080fd5b61075d610b44565b604051808273ffffffffffffffffffffffffffffffffffffffff1673ffffffffffffffffffffffffffffffffffffffff16815260200191505060405180910390f35b6107b56004808035906020019091905050610b4c565b005b6000809054906101000a900473ffffffffffffffffffffffffffffffffffffffff1673ffffffffffffffffffffffffffffffffffffffff163373ffffffffffffffffffffffffffffffffffffffff16141561084d57806000806101000a81548173ffffffffffffffffffffffffffffffffffffffff021916908373ffffffffffffffffffffffffffffffffffffffff1602179055505b50565b61085e858585858586610865565b5050505050565b60c0604051908101604052808773ffffffffffffffffffffffffffffffffffffffff1681526020018681526020016000151581526020018581526020018473ffffffffffffffffffffffffffffffffffffffff1681526020018273ffffffffffffffffffffffffffffffffffffffff16815250600260008473ffffffffffffffffffffffffffffffffffffffff1673ffffffffffffffffffffffffffffffffffffffff16815260200190815260200160002060008201518160000160006101000a81548173ffffffffffffffffffffffffffffffffffffffff021916908373ffffffffffffffffffffffffffffffffffffffff1602179055506020820151816001015560408201518160020160006101000a81548160ff0219169083151502179055506060820151816003015560808201518160040160006101000a81548173ffffffffffffffffffffffffffffffffffffffff021916908373ffffffffffffffffffffffffffffffffffffffff16021790555060a08201518160050160006101000a81548173ffffffffffffffffffffffffffffffffffffffff021916908373ffffffffffffffffffffffffffffffffffffffff160217905550905050505050505050565b6000809054906101000a900473ffffffffffffffffffffffffffffffffffffffff1673ffffffffffffffffffffffffffffffffffffffff163373ffffffffffffffffffffffffffffffffffffffff161415610a99573373ffffffffffffffffffffffffffffffffffffffff16ff5b565b60026020528060005260406000206000915090508060000160009054906101000a900473ffffffffffffffffffffffffffffffffffffffff16908060010154908060020160009054906101000a900460ff16908060030154908060040160009054906101000a900473ffffffffffffffffffffffffffffffffffffffff16908060050160009054906101000a900473ffffffffffffffffffffffffffffffffffffffff16905086565b600030905090565b6000806000600260003373ffffffffffffffffffffffffffffffffffffffff1673ffffffffffffffffffffffffffffffffffffffff168152602001908152602001600020925060008360000160009054906101000a900473ffffffffffffffffffffffffffffffffffffffff1673ffffffffffffffffffffffffffffffffffffffff161415610bda57600080fd5b8260000160009054906101000a900473ffffffffffffffffffffffffffffffffffffffff1691508260020160009054906101000a900460ff161515610d05578173ffffffffffffffffffffffffffffffffffffffff166370a08231306000604051602001526040518263ffffffff167c0100000000000000000000000000000000000000000000000000000000028152600401808273ffffffffffffffffffffffffffffffffffffffff1673ffffffffffffffffffffffffffffffffffffffff168152602001915050602060405180830381600087803b1515610cbc57600080fd5b6102c65a03f11515610ccd57600080fd5b505050604051805190509050826001015481101515610d045760018360020160006101000a81548160ff0219169083151502179055505b5b8260020160009054906101000a900460ff161515610d2257600080fd5b8260030154841015610d3357600080fd5b8173ffffffffffffffffffffffffffffffffffffffff1663a9059cbb8460050160009054906101000a900473ffffffffffffffffffffffffffffffffffffffff1685600101546000604051602001526040518363ffffffff167c0100000000000000000000000000000000000000000000000000000000028152600401808373ffffffffffffffffffffffffffffffffffffffff1673ffffffffffffffffffffffffffffffffffffffff16815260200182815260200192505050602060405180830381600087803b1515610e0657600080fd5b6102c65a03f11515610e1757600080fd5b50505060405180519050508260040160009054906101000a900473ffffffffffffffffffffffffffffffffffffffff1673ffffffffffffffffffffffffffffffffffffffff166108fc84600301549081150290604051600060405180830381858888f19350505050503373ffffffffffffffffffffffffffffffffffffffff166108fc858560030154039081150290604051600060405180830381858888f1935050505050600260003373ffffffffffffffffffffffffffffffffffffffff1673ffffffffffffffffffffffffffffffffffffffff168152602001908152602001600020600080820160006101000a81549073ffffffffffffffffffffffffffffffffffffffff021916905560018201600090556002820160006101000a81549060ff021916905560038201600090556004820160006101000a81549073ffffffffffffffffffffffffffffffffffffffff02191690556005820160006101000a81549073ffffffffffffffffffffffffffffffffffffffff02191690555050505050505600a165627a7a723058206b6f42d482f107d43d18a23d2ad83023e378f5802047bd09ce9e224d07d5a8c30029",
  "source": "pragma solidity ^0.4.8;\n\n//\n// The workether escrow contract\n//\n// To create an escrow request, follow these steps:\n// 1. Call the create() method for setup\n// 2. Transfer the tokens to the escrow contract\n//\n// The recipient can make a simple Ether transfer to get the tokens released to his address.\n//\n// The buyer pays all the fees (including gas).\n//\n\ncontract IToken {\n  function balanceOf(address _address) constant returns (uint balance);\n  function transfer(address _to, uint _value) returns (bool success);\n}\n\ncontract TokenEscrow {\n  address owner;\n  modifier owneronly { if (msg.sender == owner) _; }\n  function setOwner(address _owner) owneronly {\n    owner = _owner;\n  }\n\n  int escrowId=1;\n\n  function TokenEscrow() {\n    owner = msg.sender;\n  }\n\n  struct Escrow {\n    address token;           // address of the token contract\n    uint tokenAmount;        // number of tokens requested\n    bool tokenReceived;      // are tokens received?\n    uint price;              // price to be paid by buyer\n    address seller;          // seller's address\n    address recipient;       // address to receive the tokens\n  }\n\n  mapping (address => Escrow) public escrows;\n\n  function create(address token, uint tokenAmount, uint price, address seller, address buyer, address recipient) {\n    escrows[buyer] = Escrow(token, tokenAmount, false, price, seller, recipient);\n  }\n\n  function create(address token, uint tokenAmount, uint price, address seller, address buyer) {\n     create(token, tokenAmount, price, seller, buyer, buyer);\n  }\n\n  // Incoming transfer from the buyer\n  function() payable {\n    Escrow escrow = escrows[msg.sender];\n\n    // Contract not set up\n    if (escrow.token == 0)\n      throw;\n\n    IToken token = IToken(escrow.token);\n\n    // Check the token contract if we have been issued tokens already\n    if (!escrow.tokenReceived) {\n      uint balance = token.balanceOf(this);\n      if (balance >= escrow.tokenAmount)\n        escrow.tokenReceived = true;\n      // FIXME: what to do if we've received more tokens than required?\n    }\n\n    // No tokens yet\n    if (!escrow.tokenReceived)\n      throw;\n\n    // Buyer's price is below the agreed\n    if (msg.value < escrow.price)\n      throw;\n\n    // Transfer tokens to buyer\n    token.transfer(escrow.recipient, escrow.tokenAmount);\n\n    // Transfer money to seller\n    escrow.seller.send(escrow.price);\n\n    // Refund buyer if overpaid\n    msg.sender.send(escrow.price - msg.value);\n\n    delete escrows[msg.sender];\n  }\n\n  function kill() owneronly {\n    suicide(msg.sender);\n  }\n\n  function getEscrowId() internal returns (int) {\n    return escrowId++;\n  }\n\n    function getOwner() returns (address) {\n    return address(this) ;\n  }\n\n// Incoming transfer from the buyer\n  function receive(uint amount) payable {\n    Escrow escrow = escrows[msg.sender];\n\n    // Contract not set up\n    if (escrow.token == 0)\n      throw;\n\n    IToken token = IToken(escrow.token);\n\n    // Check the token contract if we have been issued tokens already\n    if (!escrow.tokenReceived) {\n      uint balance = token.balanceOf(this);\n      if (balance >= escrow.tokenAmount)\n        escrow.tokenReceived = true;\n      // FIXME: what to do if we've received more tokens than required?\n    }\n\n    // No tokens yet\n    if (!escrow.tokenReceived)\n      throw;\n\n    // Buyer's price is below the agreed\n    if (amount < escrow.price)\n      throw;\n\n    // Transfer tokens to buyer\n    token.transfer(escrow.recipient, escrow.tokenAmount);\n\n    // Transfer money to seller\n    escrow.seller.send(escrow.price);\n\n    // Refund buyer if overpaid\n    msg.sender.send(escrow.price - amount);\n\n    delete escrows[msg.sender];\n  }\n\n\n}\n",
  "sourcePath": "/data/company/openapp/blockchain/src/workether/contracts/implementation/TokenEscrow.sol",
  "compiler": {
    "name": "solc",
    "version": "0.4.19+commit.c4cbbb05.Emscripten.clang"
  },
  "schemaVersion": "2.0.0",
  "updatedAt": "2018-04-25T07:52:18.954Z"
}